:10000000002000100D0100008501000085010000A6
:1000100000000000000000000000000000000000E0
:10002000000000000000000000000000850100004A
:100030000000000000000000850100008D010000AC
:100040008501000085010000850100008501000098
:100050008501000085010000850100008501000088
:100060008501000085010000850100008501000078
:100070008501000085010000850100008501000068
:100080008501000085010000850100008501000058
:100090008501000085010000850100008501000048
:1000A0008501000085010000850100008501000038
:1000B0008501000085010000850100008501000028
:1000C00080B500AF0B4B00221A600B4B23221A6045
:1000D0000A4B0A4A126880218A431A60084B01229F
:1000E0001A60084B03221A60074B01221A60BD46B2
:1000F00080BDC046408004400880044038820440EF
:1001000044800440708004407480044080B584B012
:1001100000AF174BFB60174BBB60174A154BD31A48
:100120007B6007E0BB685A1CBA60FA68511CF96032
:1001300012781A707B685A1E7A60002BF2D10F4B2E
:10014000BB600F4A0D4BD31A7B6004E0BB685A1C9E
:10015000BA6000221A707B685A1E7A60002BF5D1B3
:10016000FFF7AEFF00F034F9BD4604B080BDC046D5
:10017000E804000000000010080000100800001053
:100180002000001080B500AFFEE7C04680B500AF8C
:10019000334B1B685A1E324B1A60314B1B68002BC5
:1001A00013DC2F4B2F4A1A602F4B1B685A1E2E4B05
:1001B0001A602D4B1B68002B07DC2B4B3B221A606F
:1001C0002A4B1B685A1E294B1A60294B1B68022BAD
:1001D00014D002DC012B05D034E0032B1AD0042B01
:1001E00024D02FE0234B0E221A60224B214A1168A3
:1001F000214A126852010A431A6023E01D4B16225D
:100200001A601C4B1B4A11681B4A526852010A4370
:100210001A6017E0174B1A221A60164B154A11681C
:10022000154A926852010A431A600BE0114B1C22D6
:100230001A60104B0F4A11680F4AD26852010A43E4
:100240001A60C0460A4B1B685A1C094B1A60084BBF
:100250001B68042B02DD064B01221A60BD4680BDDF
:1002600008000010E70300000C0000100000001060
:1002700004000010FC3F00501000001080B500AFDB
:10028000074B074A126807210A431A60054B064AC2
:100290001A60064B05221A6062B6BD4680BDC04694
:1002A00010E000E014E000E07FBB000018E000E098
:1002B00080B582B000AF7860C0467B685A1E7A6015
:1002C000002BFAD1BD4602B080BDC04680B582B0D9
:1002D00000AF78607B68181C0A2100F0EFF80B1C57
:1002E0001A1C224B5200D35A1AB2214B1A607B6857
:1002F000181C0A2100F08CF8031C7B607B68181C1A
:100300000A2100F0DBF80B1C1A1C184B5200D35AC0
:100310001AB2174B5A607B68181C0A2100F078F853
:10032000031C7B607B68181C0A2100F0C7F80B1CBB
:100330001A1C0E4B5200D35A1AB20D4B9A607B68AE
:10034000181C0A2100F064F8031C7B607B68181CF1
:100350000A2100F0B3F80B1C1A1C044B5200D35AAC
:100360001AB2034BDA60BD4602B080BDD40400006F
:100370001000001080B500AF0D4B0D4A12680D49FA
:100380000A431A600C4B0D4A1A600D4B1E221A606C
:100390000C4B0C4A1268802149000A431A600A4B30
:1003A00001221A60094B01221A60BD4680BDC04679
:1003B000808004404000010000800050FE0F0000DB
:1003C000FC3F005034400440684004407440044006
:1003D00080B500AFFFF752FFFFF7CCFF094B1B685A
:1003E00064225A43084B1B68D318181CFFF76EFF92
:1003F000044B1B68002B04DC044B181CFFF766FF42
:10040000ECE7EBE7000000100C000010B822000041
:10041000002941D010B4041C4C40A4460123002202
:10042000002900D54942002800D5404288422CD3FB
:1004300001242407A14204D2814202D209011B01F6
:10044000F8E7E400A14204D2814202D249005B00F5
:10045000F8E7884201D3401A1A434C08A04202D35D
:10046000001B5C0822438C08A04202D3001B9C089E
:100470002243CC08A04202D3001BDC082243002800
:1004800003D01B0901D00909E3E7101C6446002CC6
:1004900000D5404210BC7047002806D003DB002086
:1004A000C043400801E08020000607B4024802A1D2
:1004B0004018029003BDC046190000000029EBD08F
:1004C00003B5FFF7A7FF0EBC4243891A1847C04681
:0404D0007047C0466B
:1004D4003F0006005B004F0066006D007D000700D2
:0404E4007F006F0026
:0804E8001800000001000000F3
:00000001FF
